:020000040800F2
:1000000000000220E1E500089FD00008A7D000080A
:10001000AFD00008B7D00008BFD000080000000033
:10002000000000000000000000000000C9A9000856
:10003000C7D000080000000085A90008B5A8000886
:1000400031E6000831E6000831E6000831E6000834
:1000500031E6000831E6000831E6000831E6000824
:1000600031E6000831E6000831E60008C9B70008AB
:1000700031E6000831E6000831E6000831E6000804
:1000800031E6000831E6000831E6000831E60008F4
:1000900031E6000831E6000831E6000831E60008E4
:1000A00031E6000831E6000831E6000831E60008D4
:1000B000D5D0000831E6000831E6000831E6000836
:1000C00031E6000831E6000831E6000831E60008B4
:1000D00031E6000831E6000831E6000831E60008A4
:1000E00031E6000831E6000831E6000831E6000894
:1000F00031E6000831E6000831E6000831E6000884
:1001000031E6000831E6000831E6000831E6000873
:1001100031E6000831E6000831E6000831E6000863
:1001200031E6000831E6000831E6000831E6000853
:1001300031E6000831E6000831E6000831E6000843
:1001400031E6000831E6000831E6000831E6000833
:1001500031E6000831E6000831E6000831E6000823
:1001600031E6000831E6000831E6000831E6000813
:1001700031E6000831E6000831E6000831E6000803
:1001800031E6000831E6000831E6000831E60008F3
:1001900031E600080000000031E6000831E6000802
:1001A00031E6000831E6000831E60008B5B700087E
:1001B00031E6000831E6000831E6000831E60008C3
:1001C00031E6000831E6000831E6000831E60008B3
:0801D00031E6000831E60008E9
:1001D80081F0004102E000BF83F0004330B54FEAF0
:1001E80041044FEA430594EA050F08BF90EA020F5D
:1001F8001FBF54EA000C55EA020C7FEA645C7FEAF0
:10020800655C00F0E2804FEA5454D4EB5555B8BF12
:100218006D420CDD2C4480EA020281EA030382EA83
:10022800000083EA010180EA020281EA0303362D15
:1002380088BF30BD11F0004F4FEA01314FF4801CE8
:100248004CEA113102D0404261EB410113F0004FFA
:100258004FEA03334CEA133302D0524263EB4303B1
:1002680094EA050F00F0A780A4F10104D5F1200E4F
:100278000DDB02FA0EFC22FA05F2801841F10001AA
:1002880003FA0EF2801843FA05F359410EE0A5F17E
:1002980020050EF1200E012A03FA0EFC28BF4CF0AF
:1002A800020C43FA05F3C01851EBE37101F0004565
:1002B80007D54FF0000EDCF1000C7EEB00006EEB72
:1002C8000101B1F5801F1BD3B1F5001F0CD34908FC
:1002D8005FEA30004FEA3C0C04F101044FEA445253
:1002E80012F5800F80F09A80BCF1004F08BF5FEADA
:1002F800500C50F1000041EB045141EA050130BDBA
:100308005FEA4C0C404141EB0101013C28BFB1F5CB
:10031800801FE9D291F0000F04BF01460020B1FA16
:1003280081F308BF2033A3F10B03B3F120020CDAE9
:100338000C3208DD02F1140CC2F10C0201FA0CF0C7
:1003480021FA02F10CE002F11402D8BFC2F1200C2C
:1003580001FA02F120FA0CFCDCBF41EA0C019040E2
:10036800E41AA2BF01EB0451294330BD6FEA04042B
:100378001F3C1CDA0C340EDC04F11404C4F1200216
:1003880020FA04F001FA02F340EA030021FA04F328
:1003980045EA030130BDC4F10C04C4F1200220FA7F
:1003A80002F001FA04F340EA0300294630BD21FABD
:1003B80004F0294630BD94F0000F83F4801306BF83
:1003C80081F480110134013D4EE77FEA645C18BF77
:1003D8007FEA655C29D094EA050F08BF90EA020F0E
:1003E80005D054EA000C04BF1946104630BD91EA06
:1003F800030F1EBF0021002030BD5FEA545C05D109
:100408004000494128BF41F0004130BD14F5800447
:100418003CBF01F5801130BD01F0004545F0FE41BB
:1004280041F470014FF0000030BD7FEA645C1ABFF0
:10043800194610467FEA655C1CBF0B46024650EA27
:10044800013406BF52EA033591EA030F41F4002153
:1004580030BD00BF90F0000F04BF0021704730B5D9
:100468004FF4806404F132044FF000054FF00001AE
:1004780050E700BF90F0000F04BF0021704730B56F
:100488004FF4806404F1320410F0004548BF404244
:100498004FF000013EE700BF42004FEAE2014FEA99
:1004A80031014FEA02701FBF12F07F4393F07F4F74
:1004B80081F06051704732F07F4208BF704793F077
:1004C8007F4F04BF41F40021704730B54FF460748A
:1004D80001F0004521F000411CE700BF50EA01028D
:1004E80008BF704730B54FF000050AE050EA010236
:1004F80008BF704730B511F0004502D5404261EBA6
:1005080041014FF4806404F132045FEA915C3FF4E6
:10051800D8AE4FF003025FEADC0C18BF03325FEA83
:10052800DC0C18BF033202EBDC02C2F1200300FA34
:1005380003FC20FA02F001FA03FE40EA0E0021FA59
:1005480002F11444BDE600BF70B54FF0FF0C4CF447
:10055800E06C1CEA11541DBF1CEA135594EA0C0FF9
:1005680095EA0C0F00F0DEF82C4481EA030621EA34
:100578004C5123EA4C5350EA013518BF52EA03356F
:1005880041F4801143F4801338D0A0FB02CE4FF021
:100598000005E1FB02E506F00042E0FB03E54FF051
:1005A8000006E1FB03569CF0000F18BF4EF0010E49
:1005B800A4F1FF04B6F5007F64F5407404D25FEA45
:1005C8004E0E6D4146EB060642EAC62141EA5551F8
:1005D8004FEAC52040EA5E504FEACE2EB4F1FD0C3A
:1005E80088BFBCF5E06F1ED8BEF1004F08BF5FEAB8
:1005F800500E50F1000041EB045170BD06F000466A
:1006080046EA010140EA020081EA0301B4EB5C0416
:10061800C2BFD4EB0C0541EA045170BD41F480110E
:100628004FF0000E013C00F3AB8014F1360FDEBF33
:10063800002001F0004170BDC4F10004203C35DA0F
:100648000C341BDC04F11404C4F1200500FA05F392
:1006580020FA04F001FA05F240EA020001F0004233
:1006680021F0004110EBD37021FA04F642EB0601A9
:100678005EEA430E08BF20EAD37070BDC4F10C04D3
:10068800C4F1200500FA04F320FA05F001FA04F297
:1006980040EA020001F0004110EBD37041F1000183
:1006A8005EEA430E08BF20EAD37070BDC4F120058E
:1006B80000FA05F24EEA020E20FA04F301FA05F2F6
:1006C80043EA020321FA04F001F0004121FA04F29E
:1006D80020EA020000EBD3705EEA430E08BF20EA6E
:1006E800D37070BD94F0000F0FD101F000464000A8
:1006F80041EB010111F4801F08BF013CF7D041EA2A
:10070800060195F0000F18BF704703F0004652002D
:1007180043EB030313F4801F08BF013DF7D043EAFE
:100728000603704794EA0C0F0CEA135518BF95EAB4
:100738000C0F0CD050EA410618BF52EA4306D1D13B
:1007480081EA030101F000414FF0000070BD50EA5A
:10075800410606BF1046194652EA430619D094EAE4
:100768000C0F02D150EA013613D195EA0C0F05D1CE
:1007780052EA03361CBF104619460AD181EA030122
:1007880001F0004141F0FE4141F470014FF00000DA
:1007980070BD41F0FE4141F4780170BD70B54FF075
:1007A800FF0C4CF4E06C1CEA11541DBF1CEA1355F5
:1007B80094EA0C0F95EA0C0F00F0A7F8A4EB0504D7
:1007C80081EA030E52EA03354FEA013100F08880CE
:1007D8004FEA03334FF0805545EA131343EA126397
:1007E8004FEA022245EA111545EA10654FEA00264C
:1007F8000EF000419D4208BF964244F1FD0404F505
:10080800407402D25B084FEA3202B61A65EB030560
:100818005B084FEA32024FF480104FF4002CB6EB1D
:10082800020E75EB030E22BFB61A754640EA0C009D
:100838005B084FEA3202B6EB020E75EB030E22BFDD
:10084800B61A754640EA5C005B084FEA3202B6EB1E
:10085800020E75EB030E22BFB61A754640EA9C00DD
:100868005B084FEA3202B6EB020E75EB030E22BFAD
:10087800B61A754640EADC0055EA060E18D04FEA6B
:10088800051545EA16754FEA06164FEAC30343EA0B
:1008980052734FEAC2025FEA1C1CC0D111F4801FD8
:1008A8000BD141EA00014FF000004FF0004CB6E7D1
:1008B80011F4801F04BF01430020B4F1FD0C88BF70
:1008C800BCF5E06F3FF6AFAEB5EB030C04BFB6EB7B
:1008D800020C5FEA500C50F1000041EB045170BD6E
:1008E8000EF0004E4EEA113114EB5C04C2BFD4EB9B
:1008F8000C0541EA045170BD41F480114FF0000E1F
:10090800013C90E645EA060E8DE60CEA135594EA9A
:100918000C0F08BF95EA0C0F3FF43BAF94EA0C0F9D
:100928000AD150EA01347FF434AF95EA0C0F7FF412
:1009380025AF104619462CE795EA0C0F06D152EA66
:1009480003353FF4FDAE1046194622E750EA41064A
:1009580018BF52EA43067FF4C5AE50EA41047FF45B
:100968000DAF52EA43057FF4EBAE12E74FF0FF3CC0
:1009780006E000BF4FF0010C02E000BF4FF0010C91
:100988004DF804CD4FEA410C7FEA6C5C4FEA430C0A
:1009980018BF7FEA6C5C1BD001B050EA410C0CBF59
:1009A80052EA430C91EA030F02BF90EA020F0020BB
:1009B800704710F1000F91EA030F58BF994208BF22
:1009C80090422CBFD8176FEAE37040F001007047DF
:1009D8004FEA410C7FEA6C5C02D150EA013C07D136
:1009E8004FEA430C7FEA6C5CD6D152EA033CD3D081
:1009F8005DF8040B704700BF8446104662468C467B
:100A08001946634600E000BF01B5FFF7B7FF0028AD
:100A180048BF10F1000F01BD4DF808EDFFF7F4FFD6
:100A28000CBF012000205DF808FB00BF4DF808ED61
:100A3800FFF7EAFF34BF012000205DF808FB00BF84
:100A48004DF808EDFFF7E0FF94BF012000205DF8A6
:100A580008FB00BF4DF808EDFFF7CEFF94BF01205B
:100A680000205DF808FB00BF4DF808EDFFF7C4FF54
:100A780034BF012000205DF808FB00BF4FEA410C9D
:100A88007FEA6C5C02D150EA013C0AD14FEA430C80
:100A98007FEA6C5C02D152EA033C02D14FF00000BD
:100AA80070474FF0010070474A0011D212F500124A
:100AB80011D20DD56FF47873B3EB62520ED44FEAAE
:100AC800C12343F0004343EA505323FA02F070472E
:100AD8004FF00000704750EA013002D14FF0FF306C
:100AE80070474FF00000704753B94AB9002908BF52
:100AF80000281CBF4FF0FF314FF0FF3000F00CB85A
:100B0800ADF1080C6DE904CE0DF04CFFDDF804E002
:100B1800DDE9022304B07047704700BF0348044B67
:100B2800834202D0034B03B118477047EC00002002
:100B3800EC000020000000000548064B1B1AD90FE6
:100B480001EBA301491002D0034B03B118477047CA
:100B5800EC000020EC0000200000000010B5064C5E
:100B6800237843B9FFF7DAFF044B13B10448AFF316
:100B780000800123237010BDF00000200000000059
:100B8800E8EC000808B5054B1BB105490548AFF36B
:100B98000080BDE80840FFF7CFBF00BF000000009D
:100BA800F4000020E8EC000880B485B000AF78605D
:100BB8007B681B6803F06003FB60FB68002B04D1B3
:100BC8007B681B6803F01003FB60FB68184614374A
:100BD800BD465DF8047B704780B483B000AF786091
:100BE8007B685B6A18460C37BD465DF8047B704726
:100BF80080B483B000AF78607B681B6B18460C37F5
:100C0800BD465DF8047B704780B483B000AF786060
:100C180039607B681A6A3B681A437B681A6200BFAE
:100C28000C37BD465DF8047B704780B483B000AFD5
:100C3800786039607B681A6A3B68DB431A407B68D6
:100C48001A6200BF0C37BD465DF8047B704780B45C
:100C580083B000AF78607B685B6C43F400427B68CC
:100C68005A6400BF0C37BD465DF8047B704780B4FA
:100C780083B000AF78607B681B6903F48013B3F519
:100C8800801F01D1012300E0002318460C37BD4620
:100C98005DF8047B704780B483B000AF78607B68F0
:100CA800DB6843F001027B68DA6000BF0C37BD46A1
:100CB8005DF8047B704780B483B000AF78607B68D0
:100CC800DB6823F001027B68DA6000BF0C37BD46A1
:100CD8005DF8047B704780B483B000AF78607B68B0
:100CE800DB6803F00103012B01D1012300E000239D
:100CF80018460C37BD465DF8047B704780B483B056
:100D080000AF78607B68DB6843F002027B68DA60DA
:100D180000BF0C37BD465DF8047B704780B483B0D4
:100D280000AF78607B68DB6823F002027B68DA60DA
:100D380000BF0C37BD465DF8047B704780B483B0B4
:100D480000AF78607B68DB6803F00203022B01D1F7
:100D5800012300E0002318460C37BD465DF8047BEC
:100D6800704780B483B000AF78607B68DB6843F07D
:100D780004027B68DA6000BF0C37BD465DF8047B6F
:100D8800704780B483B000AF78607B68DB6823F07D
:100D980004027B68DA6000BF0C37BD465DF8047B4F
:100DA800704780B483B000AF78607B68DB6803F07D
:100DB8000403042B01D1012300E0002318460C375B
:100DC800BD465DF8047B704780B483B000AF78609F
:100DD8007B68DB6843F008027B68DA6000BF0C3789
:100DE800BD465DF8047B704780B483B000AF78607F
:100DF8007B68DB6823F008027B68DA6000BF0C3789
:100E0800BD465DF8047B704780B483B000AF78605E
:100E18007B68DB6803F00803082B01D1012300E09D
:100E2800002318460C37BD465DF8047B704780B434
:100E380083B000AF78607B68DB6843F010027B68A2
:100E4800DA6000BF0C37BD465DF8047B704780B49C
:100E580083B000AF78607B68DB6823F010027B68A2
:100E6800DA6000BF0C37BD465DF8047B704780B47C
:100E780083B000AF78607B68DB6803F01003102B49
:100E880001D1012300E0002318460C37BD465DF868
:100E9800047B704780B483B000AF78607B68DB6800
:100EA80043F020027B68DA6000BF0C37BD465DF86E
:100EB800047B704780B483B000AF78607B68DB68E0
:100EC80023F020027B68DA6000BF0C37BD465DF86E
:100ED800047B704780B483B000AF78607B68DB68C0
:100EE80003F02003202B01D1012300E00023184642
:100EF8000C37BD465DF8047B704780B483B000AF03
:100F080078607B68DB6843F040027B68DA6000BF8A
:100F18000C37BD465DF8047B704780B483B000AFE2
:100F280078607B68DB6823F040027B68DA6000BF8A
:100F38000C37BD465DF8047B704780B483B000AFC2
:100F480078607B68DB6803F04003402B01D1012304
:100F580000E0002318460C37BD465DF8047B704757
:100F680080B483B000AF78607B68DB6843F08002B0
:100F78007B68DA6000BF0C37BD465DF8047B7047BC
:100F880080B483B000AF78607B68DB6823F08002B0
:100F98007B68DA6000BF0C37BD465DF8047B70479C
:100FA80080B483B000AF78607B68DB6803F08003AF
:100FB800802B01D1012300E0002318460C37BD46E1
:100FC8005DF8047B704780B483B000AF78607B68BD
:100FD800DB6843F400027B68DA6000BF0C37BD466B
:100FE8005DF8047B704780B483B000AF78607B689D
:100FF800DB6823F400027B68DA6000BF0C37BD466B
:101008005DF8047B704780B483B000AF78607B687C
:10101800DB6803F40003B3F5000F01D1012300E0FE
:10102800002318460C37BD465DF8047B704780B432
:1010380083B000AF78607B68DB6843F480027B682C
:10104800DA6000BF0C37BD465DF8047B704780B49A
:1010580083B000AF78607B68DB6823F480027B682C
:10106800DA6000BF0C37BD465DF8047B704780B47A
:1010780083B000AF78607B68DB6803F48003B3F566
:10108800800F01D1012300E0002318460C37BD462C
:101098005DF8047B704780B483B000AF78607B68EC
:1010A800DB6843F400127B68DA6000BF0C37BD468A
:1010B8005DF8047B704780B483B000AF78607B68CC
:1010C800DB6823F400127B68DA6000BF0C37BD468A
:1010D8005DF8047B704780B483B000AF78607B68AC
:1010E800DB6803F40013B3F5001F01D1012300E00E
:1010F800002318460C37BD465DF8047B704780B462
:1011080083B000AF78607B68DB6843F480127B684B
:10111800DA6000BF0C37BD465DF8047B704780B4C9
:1011280083B000AF78607B68DB6823F480127B684B
:10113800DA6000BF0C37BD465DF8047B704780B4A9
:1011480083B000AF78607B68DB6803F48013B3F585
:10115800801F01D1012300E0002318460C37BD464B
:101168005DF8047B704780B582B000AF78607B681B
:101178001B681846FFF77BFD0346012B02D17B68ED
:101188000122DA717B68DB79012B0CBF0123002374
:10119800DBB218460837BD4680BD80B582B000AFC7
:1011A80078600B467B807B8803F00103002B0CD012
:1011B8007B681B681846FFF7C0FE0346012B04D066
:1011C8007B681B681846FFF798FE7B8803F00203CC
:1011D800002B0CD07B681B681846FFF7AFFD034651
:1011E800012B04D07B681B681846FFF787FD7B88B6
:1011F80003F00403002B0CD07B681B681846FFF72C
:10120800D0FD0346012B04D07B681B681846FFF706
:10121800A8FD7B8803F00803002B0CD07B681B68B3
:101228001846FFF7F1FD0346012B04D07B681B68C5
:101238001846FFF7C9FD7B8803F01003002B0CD07C
:101248007B681B681846FFF712FE0346012B04D083
:101258007B681B681846FFF7EAFD7B8803F02003CC
:10126800002B0CD07B681B681846FFF734FD03463B
:10127800012B04D07B681B681846FFF70CFD7B88A0
:1012880003F04003002B0CD07B681B681846FFF75F
:1012980087FE0346012B04D07B681B681846FFF7BE
:1012A8005FFE7B8803F08003002B0CD07B681B68F3
:1012B8001846FFF70FFE0346012B04D07B681B6816
:1012C8001846FFF7E7FD7B8803F48073002B0CD0EA
:1012D8007B681B681846FFF732FF0346012B04D0D2
:1012E8007B681B681846FFF70AFF7B8803F40073C6
:1012F800002B0CD07B681B681846FFF7ECFE0346F2
:10130800012B04D07B681B681846FFF7C4FE7B8856
:1013180003F48063002B0CD07B681B681846FFF72A
:1013280072FE0346012B04D07B681B681846FFF742
:101338004AFE7B8803F40063002B0CD07B681B6893
:101348001846FFF794FE0346012B04D07B681B6800
:101358001846FFF76CFE00BF0837BD4680BD80B554
:1013680082B000AF78600B467B807B8803F0010376
:10137800002B0CD07B681B681846FFF7DEFD034680
:10138800012B04D17B681B681846FFF7C6FD7B88D4
:1013980003F00203002B0CD07B681B681846FFF78C
:1013A800CDFC0346012B04D17B681B681846FFF768
:1013B800B5FC7B8803F00403002B0CD07B681B680A
:1013C8001846FFF7EEFC0346012B04D17B681B6827
:1013D8001846FFF7D6FC7B8803F00803002B0CD0D7
:1013E8007B681B681846FFF70FFD0346012B04D1E5
:1013F8007B681B681846FFF7F7FC7B8803F010032F
:10140800002B0CD07B681B681846FFF730FD03469D
:10141800012B04D17B681B681846FFF718FD7B88F1
:1014280003F02003002B0CD07B681B681846FFF7DD
:1014380052FC0346012B04D07B681B681846FFF753
:101448003AFC7B8803F04003002B0CD07B681B68B8
:101458001846FFF7A5FD0346012B04D17B681B68DE
:101468001846FFF78DFD7B8803F08003002B0CD016
:101478007B681B681846FFF72DFD0346012B04D136
:101488007B681B681846FFF715FD7B8803F480739B
:10149800002B0CD07B681B681846FFF750FE0346EC
:1014A800012B04D17B681B681846FFF738FE7B8840
:1014B80003F40073002B0CD07B681B681846FFF7F9
:1014C8000AFE0346012B04D17B681B681846FFF708
:1014D800F2FD7B8803F48063002B0CD07B681B68CB
:1014E8001846FFF790FD0346012B04D17B681B6863
:1014F8001846FFF778FD7B8803F40063002B0CD0B7
:101508007B681B681846FFF7B2FD0346012B04D120
:101518007B681B681846FFF79AFD00BF0837BD4671
:1015280080BD000080B582B000AF78600B46FB70CC
:10153800FB78022B06D17B681B6801211846FFF750
:1015480063FB36E07B681B681C4A934218D07B68B3
:101558001B681B4A934213D07B681B68194A934245
:101568000ED07B681B68184A934209D07B681B68B9
:10157800164A934204D07B681B68154A934218D1D7
:10158800FB78032B06D17B681B6804211846FFF7FC
:101598003BFB0EE0FB78042B0BD17B681B68012119
:1015A8001846FFF731FB7B681B6804211846FFF7D4
:1015B8002BFB00BF0837BD4680BD00BF002C014093
:1015C800003401400040014000440140004801400F
:1015D8000050014080B582B000AF78600B46FB70C8
:1015E800FB78022B06D17B681B6801211846FFF7A0
:1015F8001CFB36E07B681B681C4A934218D07B684A
:101608001B681B4A934213D07B681B68194A934294
:101618000ED07B681B68184A934209D07B681B6808
:10162800164A934204D07B681B68154A934218D126
:10163800FB78032B06D17B681B6804211846FFF74B
:10164800F4FA0EE0FB78042B0BD17B681B680121B0
:101658001846FFF7EAFA7B681B6804211846FFF76B
:10166800E4FA00BF0837BD4680BD00BF002C01402A
:10167800003401400040014000440140004801405E
:101688000050014080B582B000AF78600B46FB7017
:10169800FB78022B06D17B681B6810211846FFF7E0
:1016A800B3FA36E07B681B681C4A934218D07B6803
:1016B8001B681B4A934213D07B681B68194A9342E4
:1016C8000ED07B681B68184A934209D07B681B6858
:1016D800164A934204D07B681B68154A934218D176
:1016E800FB78032B06D17B681B6840211846FFF75F
:1016F8008BFA0EE0FB78042B0BD17B681B6810215A
:101708001846FFF781FA7B681B6840211846FFF7E7
:101718007BFA00BF0837BD4680BD00BF002C0140E2
:1017280000340140004001400044014000480140AD
:101738000050014080B582B000AF78600B46FB7066
:10174800FB78022B06D17B681B6810211846FFF72F
:101758006CFA36E07B681B681C4A934218D07B6899
:101768001B681B4A934213D07B681B68194A934233
:101778000ED07B681B68184A934209D07B681B68A7
:10178800164A934204D07B681B68154A934218D1C5
:10179800FB78032B06D17B681B6840211846FFF7AE
:1017A80044FA0EE0FB78042B0BD17B681B681021F0
:1017B8001846FFF73AFA7B681B6840211846FFF77E
:1017C80034FA00BF0837BD4680BD00BF002C014079
:1017D80000340140004001400044014000480140FD
:1017E8000050014080B584B000AF78600023FB60F2
:1017F8007B681B68404A934202D1404BFB600EE075
:101808007B681B683E4A934202D13E4BFB6006E070
:101818007B681B683C4A934201D13C4BFB607B6868
:101828001A68FB681A60FB681B681846FFF7BCF962
:10183800B860BB68002B06D0BB68102B03D0FB68D0
:1018480001221A7102E0FB6800221A71FB681B680A
:10185800294A934218D0FB681B682D4A934213D03B
:10186800FB681B682B4A93420ED0FB681B682A4A08
:10187800934209D0FB681B68284A934204D0FB684E
:101888001B68274A934204D1FB681B681846FFF778
:10189800DEF9FB681B68184A934218D0FB681B687E
:1018A8001B4A934213D0FB681B681A4A93420ED016
:1018B800FB681B68184A934209D0FB681B68174AE3
:1018C800934204D0FB681B68154A934208D17B6891
:1018D8001B681846FFF78CF90346DAB2FB685A71A1
:1018E800FB6800229A71FB680022DA71FB681846CF
:1018F8001037BD4680BD00BF002C01400C01002000
:101908000004004098010020000800402402002044
:1019180000340140004001400044014000480140BB
:101928000050014080B584B000AFF8600B467A6083
:10193800FB72FB7A012B02D07B68002B17D0114B6E
:101948001B78002B13D1F868FFF70DFC0346002B1A
:1019580004D1FB7A012B0AD100230EE07B68002B0F
:1019680002D07B6801221A70064B01221A70FB68AC
:101978001B681846FFF730F9034618461037BD466E
:1019880080BD00BFB002002080B485B000AF786091
:1019980039600023FB7397F90F3018461437BD469A
:1019A8005DF8047B7047000080B584B000AF7860B4
:1019B80039600023FB727B68002B05D1374802F0A1
:1019C800BFFD4FF0FF3365E03B68002B05D134487D
:1019D80002F0B6FD4FF0FF335CE0324BD3E9000173
:1019E8004FF000024FF04043FFF716F80346002B74
:1019F80006D03B68D3E900232A49C1E9002305E062
:101A0800284BD3E900233968C1E90023254BD3E9E2
:101A180000014FF00002244BFEF7FEFF0346002BA7
:101A280002D0224802F08CFD7B685B681B68204A64
:101A380013607B685B685B681E4A13607B685B6841
:101A48009B681D4A13607B685B68DB681B4A1360F0
:101A58001B4B00221A6003F0EDF90023FB60002302
:101A6800FB6007E0174AFB68174942F82310FB6838
:101A78000133FB60FB68012BF4D902F01BFE03461F
:101A8800FB7297F90B30002B02D1104B01221A7010
:101A980097F90B3018461037BD4680BD00ED000899
:101AA80024ED0008080000200000F0BF50ED0008F9
:101AB80094070020980700209C070020A00700201A
:101AC800A4070020B4020020A54E000891070020BA
:101AD80080B586B000AF78600023FB7500233B61BA
:101AE8000023FB732A4B1B78DBB2002B0CBF0123AE
:101AF8000023DBB2BB73274B02221A707B68002BD2
:101B08000BD1234B1B78DBB2002B06D1224B1B7861
:101B1800DBB2002B01D1012300E00023FB7316E0A8
:101B28000A2008F0C9FD3B6903F51C5310333B61DB
:101B38007B68B3F1FF3F05D03A697B689A4201D9C7
:101B4800012300E00023FB73002002F00BFE104B82
:101B58001B78DBB2002B07D10F4B1B78DBB2002BB5
:101B680002D1FB7B002BDBD00A4B03221A70FB7BD4
:101B7800002B01D09C23FB75BB7B002B01D003F00D
:101B880087FA97F9173018461837BD4680BD00BF49
:101B98008F070020910700209007002080B586B0AD
:101BA80000AF034687ED000BFB810023FB75012383
:101BB800BB754FF000024FF00003D7E90001FEF7B4
:101BC80035FF0346002B05D02E4802F0B9FC4FF034
:101BD800FF3353E0FB89FF2B08D9FB89FF22194605
:101BE800294802F0ADFC4FF0FF3347E0274B1B7844
:101BF800DBB2032B04D0254B1B78DBB2012B02D1BF
:101C0800224B04221A70FB89012B15D8FB89204A24
:101C180052F82330002B0FD003F000FE03467B75EB
:101C28007B7D022B08D1FB89194A52F82330FA89A7
:101C3800104698470346BB75FB897B82FB8918468B
:101C480097ED000B02F098FCBB7D002B06D07B8A39
:101C5800184603F0BBFD0346FB7503E07B8A184674
:101C680003F017FE97F91730002B05D097F91730B6
:101C78001946084802F064FC97F9173018461837D7
:101C8800BD4680BDBCED000800EE000891070020AD
:101C9800B402002040EE000880B582B000AF0023F7
:101CA800FB71002002F05EFD0346FB7197F90730D7
:101CB80018460837BD4680BD80B582B000AF002306
:101CC800FB710B4B06221A7002F0EAFD0346FB710A
:101CD8000822002107480CF0C3FF03F05FF9044B0A
:101CE80000221A7097F9073018460837BD4680BD9C
:101CF80091070020B402002080B400AF034B1B788A
:101D0800DBB21846BD465DF8047B7047900700209B
:101D180080B400AF034B1B78DBB21846BD465DF8B4
:101D2800047B7047A807002080B483B000AF7860B8
:101D38007B681B6843F001027B681A6000BF0C37A0
:101D4800BD465DF8047B704780B483B000AF78600F
:101D58007B681B6823F001027B681A6000BF0C37A0
:101D6800BD465DF8047B704780B483B000AF7860EF
:101D780039607B681B6823F004023B681A437B6860
:101D88001A6000BF0C37BD465DF8047B704780B40D
:101D980083B000AF78607B681B6803F004031846C3
:101DA8000C37BD465DF8047B704780B483B000AF44
:101DB80078607B681B6803F0100318460C37BD4633
:101DC8005DF8047B704780B483B000AF78603960F9
:101DD8007B683A681A6300BF0C37BD465DF8047B20
:101DE800704780B483B000AF78607B685B6943F06C
:101DF80001027B685A6100BF0C37BD465DF8047B61
:101E0800704780B483B000AF78607B681B69184660
:101E18000C37BD465DF8047B7047000080B485B080
:101E280000AF78607B681B689A68074B1340FB60BB
:101E3800FB68062B0CBF01230023DBB218461437BE
:101E4800BD465DF8047B70470700010080B584B08B
:101E580000AF78600B46FB707B681B681846FFF77D
:101E680096FFF860FB78002B23D07B681B68374A05
:101E7800934218D07B681B68354A934213D07B681D
:101E88001B68344A93420ED07B681B68324A9342DF
:101E980009D07B681B68314A934204D07B681B6871
:101EA8002F4A934205D17B681B6800211846FFF72B
:101EB8008AFFFB68042B11D07B681B680421184635
:101EC800FFF752FF7B681B681846FFF78AFF7B689D
:101ED8001B68F9681846FFF747FF04E07B681B6832
:101EE8001846FFF77EFF7B681B681846FFF71CFF44
:101EF800FB78002B25D07B681B68144A934218D0C6
:101F08007B681B68124A934213D07B681B68114A8E
:101F180093420ED07B681B680F4A934209D07B68B6
:101F28001B680E4A934204D07B681B680C4A934294
:101F380007D17B681A687B685B7919461046FFF7FA
:101F480042FF00BF1037BD4680BD00BF002C0140D6
:101F58000034014000400140004401400048014075
:101F68000050014080B582B000AF78607B681B6884
:101F78001846FFF71AFF0346002B14BF012300235E
:101F8800DBB218460837BD4680BD80B582B000AFC9
:101F980078607B681B681846FFF7D6FE00BF0837D5
:101FA800BD4680BD80B483B000AF78607B684FF0D9
:101FB800FF321A6000BF0C37BD465DF8047B7047DE
:101FC80080B586B000AF87ED040B87ED021B786003
:101FD80039603B684FF0FF321A60D7E90223D7E92E
:101FE8000401FEF7DBFB02460B4610461946024683
:101FF8000B46FEF7F3F802460B461046194608A3AF
:10200800D3E90023FEF7A0FA02460B467968C1E936
:10201800002300BF1837BD4680BD00BFAFF3008066
:10202800182D4454FB21094080B483B000AF786078
:102038007B684FF0FF321A6000BF0C37BD465DF871
:10204800047B70470000000080B586B000AF87EDC4
:10205800040B87ED021B786039603B684FF0FF3254
:102068001A60D7E90223D7E90401FEF797FB024675
:102078000B461046194602460B46FEF7AFF80246D5
:102088000B461046194608A3D3E90023FEF75CFA6D
:1020980002460B467968C1E9002300BF1837BD46E0
:1020A80080BD00BFAFF30080182D4454FB210940C8
:1020B80080B5A6B000AF78607B6801225A60204BDB
:1020C800BB6000233B7300237B7307F108031846AA
:1020D800FFF788FB02467B68DA607B68DB680021D3
:1020E8001846FFF75AF8022387F897307B68DB68B1
:1020F80097F8972011461846FFF714FA7B68DB68B3
:1021080097F8972011461846FFF7BCFA7B68DB68FA
:102118001846FFF783FE034687F8963097F89630FF
:10212800002B05D17B68DB6800211846FFF78EFE7F
:102138007B6801221A7200BF9837BD4680BD00BF78
:10214800002C014080B5A6B000AF78607B68012202
:102158005A60204BBB6000233B7300237B7307F15D
:1021680008031846FFF73EFB02467B68DA607B6887
:10217800DB6800211846FFF710F8022387F897302C
:102188007B68DB6897F8972011461846FFF7CAF96D
:102198007B68DB6897F8972011461846FFF772FAB4
:1021A8007B68DB681846FFF739FE034687F89630E8
:1021B80097F89630002B05D17B68DB68002118461C
:1021C800FFF744FE7B6801221A7200BF9837BD46AC
:1021D80080BD00BF0004004080B5A6B000AF7860A5
:1021E8007B6801225A60204BBB6000233B730023AD
:1021F8007B7307F108031846FFF7F4FA02467B6879
:10220800DA607B68DB6800211846FEF7C6FF022308
:1022180087F897307B68DB6897F89720114618464F
:10222800FFF780F97B68DB6897F897201146184616
:10223800FFF728FA7B68DB681846FFF7EFFD0346CF
:1022480087F8963097F89630002B05D17B68DB68C5
:1022580000211846FFF7FAFD7B6801221A7200BFB9
:102268009837BD4680BD00BF000800400000000050
:10227800B0B58CB000AF4FF09040FFF7C2FDF861E9
:10228800FB6903F48073002B14BF01230023DBB226
:102298001A46944B83F8D0204FF09040FFF7B1FDD9
:1022A800F861FB6903F40073002B14BF01230023BA
:1022B800DBB21A468B4B83F8CF208B48FFF7A1FD82
:1022C800F861FB6903F40053002B14BF01230023BA
:1022D800DBB2FB76FB7E002B06D084494FF0000270
:1022E8004FF00003C1E976237E4B93F8D0207F4B53
:1022F80093F8FA319A4245D07A4B93F8D030002BB4
:1023080020D0784B93F8CF30002B0DD1774BD3E901
:1023180076014FF00002764BFDF760FF02460B4650
:102328007249C1E976232DE0704BD3E976014FF06D
:1023380000026F4BFDF750FF02460B466B49C1E99F
:1023480076231FE0674B93F8CF30002B0DD0674BF7
:10235800D3E976014FF00002654BFDF73FFF0246D7
:102368000B466249C1E976230CE0604BD3E976015C
:102378004FF000025E4BFDF72FFF02460B465B490C
:10238800C1E97623574B93F8D020584B83F8FA21AC
:10239800564BD3E976235349C1E91E23514B93ED9C
:1023A8001E7B544B93ED006B53495448B0EE461ACC
:1023B800F0EE661AB0EE470AF0EE670AFFF744FE41
:1023C8004F4BD3F84C31D3E90023C7E90423474BDB
:1023D800D3E90C23D7E90401FEF732FB0346002BAF
:1023E80011D0424BD3E91023D7E90401FEF728FBAB
:1023F8000346002B07D03B494FF000024FF0000383
:10240800C1E9002351E0394BD3E90C23C7E90A237A
:102418003C4B7B62354BD3E90C01344BD3E9102399
:10242800FEF704FB0346002B11D0304BD3E91023F1
:10243800D7E90401FEF718FB0346002B18D02B4BF5
:10244800D3E91023C7E90A232F4B7B6210E0274BFF
:10245800D3E90C23D7E90401FEF7F2FA0346002B6F
:1024680006D0224BD3E91023C7E90A23264B7B6207
:102478001C4BD3E92A017B6AD3E90023FDF7ACFEA4
:1024880002460B4614461D46D7E90A23D7E904013C
:10249800FDF7A2FE02460B4620462946FEF77EF9C6
:1024A80002460B460F49C1E90023104BD3E9142318
:1024B800D7E90401FEF7C4FA0346002B26D00B4BDC
:1024C800D3E91823D7E90401FEF7BAFA0346002B2B
:1024D8001CD004494FF000024FF00003C1E9022369
:1024E80066E000BFC00200200008004898030020F2
:1024F8000000F03FA8150108AC0500206803002083
:10250800C8050020D0030020E0030020784BD3E961
:102518001423C7E90A23774B7B62754BD3E914016F
:10252800734BD3E91823FEF781FA0346002B11D029
:102538006F4BD3E91823D7E90401FEF795FA034650
:10254800002B18D06A4BD3E91823C7E90A236A4B32
:102558007B6210E0664BD3E91423D7E90401FEF748
:102568006FFA0346002B06D0614BD3E91823C7E95D
:102578000A23614B7B62614BD3E900017B6AD3E993
:102588000023FDF729FE02460B4614461D46D7E9EF
:102598000A23D7E90401FDF71FFE02460B46204631
:1025A8002946FEF7FBF802460B465449C1E90223C7
:1025B800FB7E002B06D04E494FF000024FF000037F
:1025C800C1E97C234D4B93F8D020494B93F8FB315C
:1025D8009A422ED0494B93F8D030002B12D0474B5B
:1025E80093F8CF30002B0DD1414BD3E97C014FF04C
:1025F8000002434BFDF7F2FD02460B463C49C1E998
:102608007C2316E03D4B93F8D030002B11D03B4B88
:1026180093F8CF30002B0CD0354BD3E97C014FF029
:102628000002374BFDF7D8FD02460B463049C1E999
:102638007C23324B93F8D0202D4B83F8FB212C4B75
:10264800D3E97C232D49C1E922232C4B93ED227B2E
:102658002C492D489FED241BB0EE470AF0EE670A7F
:10266800FFF7AEFC224BD3E91C23D7E90401FEF7A0
:10267800E7F90346002B11D01D4BD3E92023D7E9F6
:102688000401FEF7DDF90346002B07D01B494FF084
:1026980000024FF00003C1E9042369E0144BD3E9B9
:1026A8001C23C7E90A23194B7B62114BD3E91C0190
:1026B8000F4BD3E92023FEF7B9F90346002B29D0A5
:1026C8000B4BD3E92023D7E90401FEF7CDF90346E4
:1026D800002B30D0064BD3E92023C7E90A230C4B43
:1026E8007B6228E0AFF30080000000000000A040FB
:1026F80098030020F003002000040020C0020020FE
:102708000000F03FBC0500207803002010040020E2
:10271800200400209B4BD3E91C23D7E90401FEF7D2
:102728008FF90346002B06D0964BD3E92023C7E93F
:102738000A23954B7B62954BD3E92E017B6AD3E93B
:102748000023FDF749FD02460B4614461D46D7E90E
:102758000A23D7E90401FDF73FFD02460B46204650
:102768002946FEF71BF802460B468849C1E90423AF
:10277800844BD3E92423D7E90401FEF761F9034622
:10278800002B11D07F4BD3E92823D7E90401FEF7AA
:1027980057F90346002B07D07C494FF000024FF051
:1027A8000003C1E9062351E0764BD3E92423C7E9A6
:1027B8000A23774B7B62734BD3E92401714BD3E92E
:1027C8002823FEF733F90346002B11D06D4BD3E9CC
:1027D8002823D7E90401FEF747F90346002B18D050
:1027E800684BD3E92823C7E90A236A4B7B6210E0C8
:1027F800644BD3E92423D7E90401FEF721F9034602
:10280800002B06D05F4BD3E92823C7E90A23614B85
:102818007B625E4BD3E904017B6AD3E90023FDF7B1
:10282800DBFC02460B4614461D46D7E90A23D7E9C6
:102838000401FDF7D1FC02460B4620462946FDF768
:10284800ADFF02460B465149C1E90623FB7E002B2A
:1028580006D04C494FF000024FF00003C1E9702345
:102868004A4B93F8D020474B93F8F8319A4208D155
:10287800464B93F8CF20434B93F8F9319A4200F036
:10288800B780404B93F8F831002B25D13F4B93F894
:10289800D030002B20D03D4B93F8CF30002B0DD1FA
:1028A800384BD3E970014FF000023B4BFDF796FC23
:1028B80002460B463349C1E9702399E0314BD3E90D
:1028C80070014FF00002344BFDF786FC02460B46C0
:1028D8002C49C1E970238BE02A4B93F8F831002B7F
:1028E80025D02A4B93F8D030002B20D1274B93F8D2
:1028F800CF30002B0DD0234BD3E970014FF00002ED
:10290800254BFDF76BFC02460B461E49C1E97023B7
:102918006EE01C4BD3E970014FF000021E4BFDF72F
:102928005BFC02460B461749C1E9702360E0154B72
:1029380093F8F931002B31D1144B93F8CF30002B99
:102948002CD0124B93F8D030002B0DD00D4BD3E97F
:1029580070014FF00002104BFDF740FC02460B4699
:102968000849C1E9702343E0064BD3E970014FF0F1
:102978000002094BFDF730FC02460B460149C1E94C
:10298800702335E09803002020040020C0020020B6
:1029980030040020400400200000F03F7D4B93F8F5
:1029A800F931002B24D07C4B93F8CF30002B1FD16A
:1029B800794B93F8D030002B0DD1764BD3E97001C9
:1029C8004FF00002754BFDF709FC02460B467149B2
:1029D800C1E970230CE06F4BD3E970014FF000029E
:1029E8006E4BFDF7F9FB02460B466A49C1E97023B5
:1029F800694B93F8D020674B83F8F821664B93F81E
:102A0800CF20644B83F8F921624BD3E970236249E4
:102A1800C1E91A23604B93ED1A7B614B93ED066B6A
:102A280060496148B0EE461AF0EE661AB0EE470A01
:102A3800F0EE670AFFF708FB564BD3E92C23D7E9DA
:102A48000401FDF7FDFF0346002B11D0514BD3E9DC
:102A58003023D7E90401FDF7F3FF0346002B07D025
:102A68004D494FF000024FF00003C1E9082351E03F
:102A7800484BD3E92C23C7E90A234C4B7B62454BCF
:102A8800D3E92C01434BD3E93023FDF7CFFF0346AD
:102A9800002B11D03F4BD3E93023D7E90401FDF7D0
:102AA800E3FF0346002B18D03A4BD3E93023C7E99C
:102AB8000A233F4B7B6210E0364BD3E92C23D7E93E
:102AC8000401FDF7BDFF0346002B06D0314BD3E9C7
:102AD8003023C7E90A23364B7B622F4BD3E9240105
:102AE8007B6AD3E90023FDF777FB02460B461446C1
:102AF8001D46D7E90A23D7E90401FDF76DFB024615
:102B08000B4620462946FDF749FE02460B46224958
:102B1800C1E908231F4BD3E93423D7E90401FDF7A2
:102B28008FFF0346002B11D01A4BD3E93823D7E97E
:102B38000401FDF785FF0346002B07D016494FF027
:102B480000024FF00003C1E90A2365E0114BD3E905
:102B58003423C7E90A23174B7B620E4BD3E93401B0
:102B68000C4BD3E93823FDF761FF0346002B25D032
:102B7800084BD3E93823D7E90401FDF775FF03466D
:102B8800002B2CD0034BD3E93823C7E90A230A4B7F
:102B98007B6224E098030020C00200200000F03F80
:102BA800A8150108940500205003002050040020B7
:102BB800600400207004002080040020944BD3E9B6
:102BC8003423D7E90401FDF73BFF0346002B06D069
:102BD8008F4BD3E93823C7E90A238E4B7B628E4B90
:102BE800D3E908017B6AD3E90023FDF7F5FA024629
:102BF8000B4614461D46D7E90A23D7E90401FDF719
:102C0800EBFA02460B4620462946FDF7C7FD024669
:102C18000B468149C1E90A237D4BDB6A002200216A
:102C28001846FEF77FFE03467B4AC2F8C830784B49
:102C3800DB6A1846FFF796F903461A46764B83F87F
:102C4800CE20FB7E002B06D071494FF000024FF0DA
:102C58000003C1E97823704BD3F8C8301846FDF754
:102C6800F9FB6B4BD3E97A23FDF7B6FA02460B461C
:102C7800C7E90A235EA3D3E90023D7E90A01FDF7D0
:102C8800F3FE0346002B1ED0614BD3E97845D7E904
:102C98000A2359A1D1E90001FDF79EFA02460B4625
:102CA80020462946FDF798FA02460B461046194673
:102CB8004FF00002594BFDF78FFA02460B46544974
:102CC800C1E9782334E04EA3D3E90023D7E90A0108
:102CD800FDF7ACFE0346002B1ED047A3D3E9002323
:102CE800D7E90A01FDF77AFA02460B46104619465B
:102CF800474BD3E97823FDF771FA02460B46104695
:102D080019464FF00002454BFDF768FA02460B469C
:102D18003F49C1E978230BE03D4BD3E97801D7E976
:102D28000A23FDF75BFA02460B463949C1E97823C5
:102D3800394BD3F8C8301846FDF78CFB02460B46D2
:102D48003349C1E97A23324BD3E978233249C1E9BF
:102D58002023314B93ED207B314932489FED2A1BCC
:102D6800B0EE470AF0EE670AFFF72AF9284BD3E9D5
:102D78003C23D7E90401FDF763FE0346002B11D07D
:102D8800234BD3E94023D7E90401FDF759FE034655
:102D9800002B07D020494FF000024FF00003C1E993
:102DA8000C2373E01A4BD3E93C23C7E90A231E4BD3
:102DB8007B62174BD3E93C01154BD3E94023FDF760
:102DC80035FE0346002B33D0114BD3E94023D7E916
:102DD8000401FDF749FE0346002B3AD00C4BD3E91A
:102DE8004023C7E90A23114B7B6232E0AFF300802E
:102DF8000000000000FEDF400000000000FEEF4081
:102E08000000000000FEDFC0000000000000A0403D
:102E18009803002080040020C00200200000F03F3A
:102E2800B40500207003002090040020A0040020B6
:102E3800934BD3E93C23D7E90401FDF701FE034690
:102E4800002B06D08E4BD3E94023C7E90A238D4BCC
:102E58007B628D4BD3E92C017B6AD3E90023FDF714
:102E6800BBF902460B4614461D46D7E90A23D7E9A3
:102E78000401FDF7B1F902460B4620462946FDF745
:102E88008DFC02460B468049C1E90C237C4BD3E9F3
:102E98004423D7E90401FDF7D3FD0346002B11D0E5
:102EA800774BD3E94823D7E90401FDF7C9FD034669
:102EB800002B07D074494FF000024FF00003C1E91E
:102EC8000E2351E06E4BD3E94423C7E90A236F4B25
:102ED8007B626B4BD3E94401694BD3E94823FDF787
:102EE800A5FD0346002B11D0654BD3E94823D7E94C
:102EF8000401FDF7B9FD0346002B18D0604BD3E958
:102F08004823C7E90A23624B7B6210E05C4BD3E994
:102F18004423D7E90401FDF793FD0346002B06D0AF
:102F2800574BD3E94823C7E90A23594B7B62564BD1
:102F3800D3E90C017B6AD3E90023FDF74DF902467A
:102F48000B4614461D46D7E90A23D7E90401FDF7C5
:102F580043F902460B4620462946FDF71FFC024668
:102F68000B464949C1E90E23454BDB690022002184
:102F78001846FEF7D7FC0346434AC2F8C430404B14
:102F8800DB691846FEF7EEFF03461A463E4B83F808
:102F9800CD20FB7E002B06D039494FF000024FF0C0
:102FA8000003C1E97223384BD3F8C4301846FDF743
:102FB80051FA334BD3E97423FDF70EF902460B4659
:102FC800C7E90A2328A3D3E90023D7E90A01FDF7B3
:102FD8004BFD0346002B1ED0294BD3E97245D7E998
:102FE8000A2323A1D1E90001FDF7F6F802460B46B2
:102FF80020462946FDF7F0F802460B4610461946CA
:103008004FF00002234BFDF7E7F802460B461C4938
:10301800C1E972234CE018A3D3E90023D7E90A01D8
:10302800FDF704FD0346002B36D011A3D3E9002396
:10303800D7E90A01FDF7D2F802460B4610461946B1
:103048000F4BD3E97223FDF7C9F802460B46104629
:1030580019464FF000020F4BFDF7C0F802460B4629
:103068000749C1E9722323E00000000000FEDF40A9
:103078000000000000FEEF400000000000FEDFC07E
:1030880098030020A0040020C0020020B004002003
:10309800C00400200000F03F6E4BD3E97201D7E96D
:1030A8000A23FDF79BF802460B466A49C1E97223D9
:1030B800694BD3F8C4301846FDF7CCF902460B46E5
:1030C8006449C1E97423634BD3E972236249C1E9B6
:1030D8001C23614B93ED1C7B604B93ED026B6049A5
:1030E8006048B0EE461AF0EE661AB0EE470AF0EE07
:1030F800670AFEF7A9FF574BD3E94C23D7E9040128
:10310800FDF79EFC0346002B11D0524BD3E9502308
:10311800D7E90401FDF794FC0346002B07D04E497C
:103128004FF000024FF00003C1E9102351E0494B72
:10313800D3E94C23C7E90A234B4B7B62454BD3E9C0
:103148004C01444BD3E95023FDF770FC0346002B98
:1031580011D0404BD3E95023D7E90401FDF784FC93
:103168000346002B18D03B4BD3E95023C7E90A2369
:103178003E4B7B6210E0374BD3E94C23D7E904017F
:10318800FDF75EFC0346002B06D0324BD3E95023F3
:10319800C7E90A23354B7B622F4BD3E928017B6AA9
:1031A800D3E90023FDF718F802460B4614461D46DE
:1031B800D7E90A23D7E90401FDF70EF802460B46C2
:1031C80020462946FDF7EAFA02460B462249C1E99C
:1031D8001023204BD3E95423D7E90401FDF730FC31
:1031E8000346002B11D01B4BD3E95823D7E9040120
:1031F800FDF726FC0346002B07D017494FF00002C5
:103208004FF00003C1E9122364E0124BD3E95423C1
:10321800C7E90A23164B7B620E4BD3E954010D4BC9
:10322800D3E95823FDF702FC0346002B24D0094BB1
:10323800D3E95823D7E90401FDF716FC0346002B10
:103248002BD0044BD3E95823C7E90A23094B7B62E7
:1032580023E000BF98030020C0020020A815010841
:10326800A405002060030020D0040020E004002012
:10327800F004002000050020954BD3E95423D7E93A
:103288000401FDF7DDFB0346002B06D0904BD3E984
:103298005823C7E90A238F4B7B628F4BD3E9100170
:1032A8007B6AD3E90023FCF797FF02460B461446D6
:1032B8001D46D7E90A23D7E90401FCF78DFF02462A
:1032C8000B4620462946FDF769FA02460B46824915
:1032D800C1E912237E4BDB68002200211846FEF765
:1032E80021FB03467C4AC2F8C030794BDB6818469C
:1032F800FEF738FE03461A46774B83F8CC20FB7E50
:10330800002B06D072494FF000024FF00003C1E9CC
:103318006C23714BD3F8C0301846FDF79BF86C4B03
:10332800D3E96E23FCF758FF02460B46C7E90A2388
:1033380061A3D3E90023D7E90A01FDF795FB03460A
:10334800002B1ED0624BD3E96C45D7E90A235CA158
:10335800D1E90001FCF740FF02460B46204629460A
:10336800FCF73AFF02460B46104619464FF000029A
:103378005A4BFCF731FF02460B465549C1E96C230D
:1033880034E051A3D3E90023D7E90A01FDF74EFB46
:103398000346002B1ED04AA3D3E90023D7E90A012C
:1033A800FCF71CFF02460B4610461946484BD3E96A
:1033B8006C23FCF713FF02460B46104619464FF0E4
:1033C8000002464BFCF70AFF02460B464049C1E99A
:1033D8006C230BE03E4BD3E96C01D7E90A23FCF7D9
:1033E800FDFE02460B463A49C1E96C233A4BD3F835
:1033F800C0301846FDF72EF802460B463449C1E99D
:103408006E23334BD3E96C233349C1E91823324B7C
:1034180093ED187B324B93ED046B32493248B0EE92
:10342800461AF0EE661AB0EE470AF0EE670AFEF7A3
:103438000BFE274BD3E95C23D7E90401FDF700FB1A
:103448000346002B11D0224BD3E96023D7E90401AE
:10345800FDF7F6FA0346002B07D01F494FF000028C
:103468004FF00003C1E9142372E0194BD3E95C2340
:10347800C7E90A231D4B7B62154BD3E95C01144B4A
:10348800D3E96023FDF7D2FA0346002B32D0104B64
:10349800D3E96023D7E90401FDF7E6FA0346002BD8
:1034A80039D00B4BD3E96023C7E90A23104B7B6261
:1034B80031E000BFAFF300800000000000F8DF40FB
:1034C8000000000000F8EF400000000000F8DFC036
:1034D8009803002000050020C00200200000F03FF3
:1034E800A81501089C05002058030020100500209D
:1034F800200500208C4BD3E95C23D7E90401FDF7B4
:103508009FFA0346002B06D0874BD3E96023C7E90F
:103518000A23864B7B62864BD3E926017B6AD3E973
:103528000023FCF759FE02460B4614461D46D7E910
:103538000A23D7E90401FCF74FFE02460B46204652
:103548002946FDF72BF902460B467949C1E91423B0
:10355800754BD3E96423D7E90401FDF771FA0346F3
:10356800002B11D0704BD3E96823D7E90401FDF78C
:1035780067FA0346002B07D06D494FF000024FF061
:103588000003C1E9162351E0674BD3E96423C7E977
:103598000A23684B7B62644BD3E96401624BD3E92D
:1035A8006823FDF743FA0346002B11D05E4BD3E99D
:1035B8006823D7E90401FDF757FA0346002B18D012
:1035C800594BD3E96823C7E90A235B4B7B6210E0B8
:1035D800554BD3E96423D7E90401FDF731FA0346D3
:1035E800002B06D0504BD3E96823C7E90A23524B76
:1035F8007B624F4BD3E914017B6AD3E90023FCF7C4
:10360800EBFD02460B4614461D46D7E90A23D7E9C7
:103618000401FCF7E1FD02460B4620462946FDF76A
:10362800BDF802460B464249C1E916233E4BD3E991
:103638000C01424BD3E90023FDF7EEF90346002BBA
:103648000AD03F4BD3F84C31D3E900233649C1E9BE
:103658000C233C4B3B6235E0334BD3E91001374B2D
:10366800D3E90023FDF7D8F90346002B0AD0344BE1
:10367800D3F84C31D3E900232B49C1E91023324B4D
:103688003B621FE0284BD3E90C01274BD3E91023F9
:10369800FDF7CCF90346002B0AD0294BD3F84C315F
:1036A800D3E900232049C1E90C23264B3B6209E0FA
:1036B800234BD3F84C31D3E900231B49C1E910232C
:1036C800214B3B621A4BD3E92A23396AC1E900230B
:1036D800154BD3E91401194BD3E90023FDF79CF9E5
:1036E8000346002B0AD0164BD3F84C31D3E90023FC
:1036F8000D49C1E91423154B3B624BE00A4BD3E952
:1037080018010E4BD3E90023FDF786F90346002B79
:1037180020D00B4BD3F84C31D3E900230249C1E93F
:1037280018230B4B3B6235E098030020200500204E
:10373800C0020020300500204005002000000020C5
:10374800C8050020D0030020E0030020F00300207B
:1037580000040020854BD3E91401844BD3E91823D6
:10376800FDF764F90346002B0AD0814BD3F84C319E
:10377800D3E900237D49C1E914237E4B3B6209E06C
:103788007B4BD3F84C31D3E900237849C1E918239E
:10379800794B3B62794BD3E90023396AC1E90023AD
:1037A800724BD3E91C01764BD3E90023FDF734F9BA
:1037B8000346002B0AD06E4BD3F84C31D3E90023D3
:1037C8006A49C1E91C236F4B3B6235E0674BD3E97B
:1037D80020016B4BD3E90023FDF71EF90346002BAC
:1037E8000AD0634BD3F84C31D3E900235F49C1E9D0
:1037F8002023654B3B621FE05C4BD3E91C015B4B0C
:10380800D3E92023FDF712F90346002B0AD0584BC1
:10381800D3F84C31D3E900235449C1E91C23594B4F
:103828003B6209E0524BD3F84C31D3E900234F49AE
:10383800C1E92023544B3B62504BD3E92E23396A0C
:10384800C1E90023494BD3E924014D4BD3E90023B7
:10385800FDF7E2F80346002B0AD0454BD3F84C316C
:10386800D3E900234149C1E92423484B3B6235E0B1
:103878003E4BD3E92801424BD3E90023FDF7CCF8AE
:103888000346002B0AD03A4BD3F84C31D3E9002336
:103898003649C1E928233E4B3B621FE0334BD3E94D
:1038A8002401324BD3E92823FDF7C0F80346002B47
:1038B8000AD02F4BD3F84C31D3E900232B49C1E967
:1038C8002423324B3B6209E0294BD3F84C31D3E92E
:1038D80000232649C1E928232D4B3B62274BD3E916
:1038E8000423396AC1E90023204BD3E92C01244B76
:1038F800D3E90023FDF790F80346002B0AD01C4BB0
:10390800D3F84C31D3E900231849C1E92C23214BC2
:103918003B624DE0154BD3E93001194BD3E9002345
:10392800FDF77AF80346002B0AD0114BD3F84C3137
:10393800D3E900230D49C1E93023174B3B6237E037
:103948000A4BD3E92C01094BD3E93023FDF76EF874
:103958000346002B22D0064BD3F84C31D3E9002381
:103968000249C1E92C230B4B3B6221E0980300205C
:10397800C8050020F003002000040020C002002039
:103988000000002010040020200400203004002043
:103998004004002050040020600400207A4BD3F833
:1039A8004C31D3E900237949C1E93023784B3B6294
:1039B800784BD3E92423396AC1E90023734BD3E94F
:1039C8003401754BD3E90023FDF726F80346002B95
:1039D8000AD06D4BD3F84C31D3E900236B49C1E9C8
:1039E80034236E4B3B6235E0684BD3E938016A4BB0
:1039F800D3E90023FDF710F80346002B0AD0624BE9
:103A0800D3F84C31D3E900236049C1E93823644B2A
:103A18003B621FE05D4BD3E934015C4BD3E93823AB
:103A2800FDF704F80346002B0AD0574BD3F84C3166
:103A3800D3E900235549C1E93423584B3B6209E0D7
:103A4800514BD3F84C31D3E900235049C1E938230D
:103A5800534B3B624F4BD3E90823396AC1E9002332
:103A68004A4BD3E93C014C4BD3E90023FCF7D4FF84
:103A78000346002B0AD0444BD3F84C31D3E900233A
:103A88004249C1E93C23474B3B6235E03F4BD3E910
:103A98004001414BD3E90023FCF7BEFF0346002B4E
:103AA8000AD0394BD3F84C31D3E900233749C1E95F
:103AB80040233D4B3B621FE0344BD3E93C01334B81
:103AC800D3E94023FCF7B2FF0346002B0AD02E4B64
:103AD800D3F84C31D3E900232C49C1E93C23314BBD
:103AE8003B6209E0284BD3F84C31D3E9002327493E
:103AF800C1E940232C4B3B62264BD3E92C23396A7E
:103B0800C1E90023214BD3E94401234BD3E9002326
:103B1800FCF782FF0346002B0AD01B4BD3F84C312D
:103B2800D3E900231949C1E94423204B3B624BE008
:103B3800164BD3E94801184BD3E90023FCF76CFF77
:103B48000346002B0AD0104BD3F84C31D3E900239D
:103B58000E49C1E94823164B3B6235E00B4BD3E9CC
:103B680044010A4BD3E94823FCF760FF0346002BC6
:103B780020D0054BD3F84C31D3E900230349C1E9E0
:103B880044230A4B3B621FE0C8050020980300202D
:103B980060040020C0020020000000207004002003
:103BA8008004002090040020A0040020B00400201D
:103BB800C00400207A4BD3F84C31D3E9002379496B
:103BC800C1E94823784B3B62784BD3E90C23396A27
:103BD800C1E90023734BD3E94C01754BD3E90023AA
:103BE800FCF71AFF0346002B0AD06D4BD3F84C3173
:103BF800D3E900236B49C1E94C236E4B3B6235E0A6
:103C0800684BD3E950016A4BD3E90023FCF704FF62
:103C18000346002B0AD0624BD3F84C31D3E900237A
:103C28006049C1E95023644B3B621FE05D4BD3E917
:103C38004C015C4BD3E95023FCF7F8FE0346002BFC
:103C48000AD0574BD3F84C31D3E900235549C1E981
:103C58004C23584B3B6209E0514BD3F84C31D3E924
:103C680000235049C1E95023534B3B624F4BD3E9E2
:103C78002823396AC1E900234A4BD3E954014C4B44
:103C8800D3E90023FCF7C8FE0346002B0AD0444BB7
:103C9800D3F84C31D3E900234249C1E95423474BB7
:103CA8003B6235E03F4BD3E95801414BD3E9002350
:103CB800FCF7B2FE0346002B0AD0394BD3F84C313F
:103CC800D3E900233749C1E958233D4B3B621FE044
:103CD800344BD3E95401334BD3E95823FCF7A6FE00
:103CE8000346002B0AD02E4BD3F84C31D3E90023DE
:103CF8002C49C1E95423314B3B6209E0284BD3F8E6
:103D08004C31D3E900232749C1E958232C4B3B62A6
:103D1800264BD3E91023396AC1E90023214BD3E9A3
:103D28005C01234BD3E90023FCF776FE0346002B06
:103D38000AD01B4BD3F84C31D3E900231949C1E908
:103D48005C23204B3B624BE0164BD3E96001184BD8
:103D5800D3E90023FCF760FE0346002B0AD0104B82
:103D6800D3F84C31D3E900230E49C1E96023164B3F
:103D78003B6235E00B4BD3E95C010A4BD3E9602386
:103D8800FCF754FE0346002B20D0054BD3F84C31EA
:103D9800D3E900230349C1E95C230A4B3B621FE0D6
:103DA800C805002098030020C0040020C00200209D
:103DB80000000020D0040020E0040020F0040020CF
:103DC800000500201005002020050020504BD3F8E6
:103DD8004C31D3E900234F49C1E960234E4B3B6284
:103DE8004E4BD3E92623396AC1E90023494BD3E96D
:103DF80064014B4BD3E90023FCF70EFE0346002B6E
:103E08000AD0434BD3F84C31D3E900234149C1E9E7
:103E18006423444B3B6235E03E4BD3E96801404B99
:103E2800D3E90023FCF7F8FD0346002B0AD0384BF2
:103E3800D3F84C31D3E900233649C1E968233A4B1A
:103E48003B621FE0334BD3E96401324BD3E968236B
:103E5800FCF7ECFD0346002B0AD02D4BD3F84C3170
:103E6800D3E900232B49C1E964232E4B3B6209E0C7
:103E7800274BD3F84C31D3E900232649C1E96823FD
:103E8800294B3B62254BD3E91423396AC1E9002346
:103E98000023FB731E4BD3F838311846FCF7DAFAC7
:103EA80019A3D3E90023FCF74FFB02460B46C7E9E9
:103EB800002397ED000B0120FDF770FE0346FB730E
:103EC800134BD3F828210132C3F82821D3F828311D
:103ED8001846FCF7BFFA0E4BD3E94C230C4CD4F828
:103EE8004C41FCF731FB02460B46C4E90023084B62
:103EF800D3F838210132C3F8382100BF3037BD4626
:103F0800B0BD00BFAFF300807B14AE47E17A843FB9
:103F1800C80500209803002020050020C0020020CA
:103F280000000020300500204005002000000000AF
:103F380080B500AF8A4B8A4A03F5A473D360884BD7
:103F4800874A03F5A673C2F88430854B844A03F583
:103F580098739362824A824BC3F8D020804B804A80
:103F68009A607F4BDB6801221A707D4B002283F830
:103F7800FC207B4B002283F80C21794B794A5A614B
:103F8800774B774A03F5A873C2F84C3174494FF060
:103F98000002754BC1E9502371496FA3D3E900238F
:103FA800C1E94C236E4B714AC3F810216C4B704A1F
:103FB800C3F814216A4B6F4AC3F81821684B6E4A3C
:103FC800C3F81C21664B6D4A5A606C4B6C4A1A60E8
:103FD8006B4B6C4A1A606A4B6A4A5A60684B694A6A
:103FE8009A60674B674ADA60654B664A1A61644BA8
:103FF800644A5A61624B634A9A61614B614ADA6169
:104008005F4B604A1A625E4B5E4A5A625C4B5D4A7D
:104018009A625B4B5B4ADA62594B5A4A1A63584BAD
:10402800584A5A63564B574A9A63554B554ADA636E
:10403800534B544A1A64524B524A5A64504B514A91
:104048009A64474A464B5B6802F590729A60444A04
:10405800434B5B6802F588725A60414A404B5B6883
:10406800D2F84C21DA60484BD3E900234749C1E92B
:104078000C23454BD3E900234449C1E91023424BA3
:10408800D3E900234149C1E914233F4BD3E9002375
:104098003E49C1E918233C4BD3E900233B49C1E918
:1040A8001C23394BD3E900233849C1E92023364B77
:1040B800D3E900233549C1E92423334BD3E900234D
:1040C8003249C1E92823304BD3E900232F49C1E9FC
:1040D8002C232D4BD3E900232C49C1E930232A4B4B
:1040E800D3E900232949C1E93423274BD3E9002325
:1040F8002649C1E93823244BD3E900232349C1E9E0
:104108003C23214BD3E900232049C1E940231E4B1E
:10411800D3E900231D49C1E944231B4BD3E90023FC
:104128001A49C1E94823184BD3E900231749C1E9C3
:104138004C23154BD3E900231449C1E95023124BF2
:10414800D3E900231149C1E954230F4BD3E90023D4
:104158001EE000BFAFF300807B14AE47E17A843FD6
:10416800C8050020BCEF00080000F0BFBFECD2E398
:10417800D024F07615B4361A4E0B8260280700203A
:104188003C070020A015010800000020980300202B
:104198002549C1E95823254BD3E900232249C1E920
:1041A8005C23224BD3E900231F49C1E960231F4B3D
:1041B800D3E900231C49C1E964231C4BD3E900233C
:1041C8001949C1E968231A48FDF72EFF1948FDF778
:1041D800E9FE1948FDF728FF1848FDF7E3FE1848DF
:1041E800FDF722FF1748FDF71FFF0F4B00225A6209
:1041F8000D4B002283F820201348FDF759FF0A4B86
:1042080000225A61084B00221A741048FDF79AFFE1
:10421800054B00225A60044B00221A700248FDF731
:10422800DBFF00BF80BD00BF980300200000002016
:10423800AC050020BC05002094050020B405002032
:10424800A40500209C050020B8030020A803002036
:1042580080B582B000AF424B93F82030002B27D1B5
:104268003F4B012283F820203D4B5B6A012B1FD175
:104278003B4B93F82830002B1AD0394BDB6A184691
:10428800FDF783FE364BDB6A00211846FDF767F819
:104298000223FB71324BDB6AFA7911461846FDF7A7
:1042A80099F92F4BDB6AFA7911461846FDF742FA5D
:1042B8002B4B1B7C002B25D1294B01221A74284B30
:1042C8005B69012B1ED1264B1B7E002B1AD0244B79
:1042D800DB691846FDF759FE214BDB6900211846BA
:1042E800FDF73DF80223FB711D4BDB69FA79114696
:1042F8001846FDF76FF91A4BDB69FA79114618462B
:10430800FDF718FA164B1B78002B25D1144B012208
:104318001A70134B5B68012B1ED1114B1B7A002BB3
:104328001AD00F4BDB681846FDF72FFE0C4BDB68E5
:1043380000211846FDF713F80223FB71084BDB68D0
:10434800FA7911461846FDF745F9054BDB68FA7905
:1043580011461846FDF7EEF900BF0837BD4680BD87
:104368009803002080B500AF0F4B1B785A1CD1B2C0
:104378000D4A1170002B09D00C4B01221A600A4B10
:104388001B78013BDAB2084B1A700BE062B600BF2B
:10439800FDF76EFF72B600BF034B1B78013BDAB224
:1043A800014B1A7080BD00BF8C07002088070020D1
:1043B80080B586B000AF786039605B4B7B615B4B42
:1043C8003B610023FB735A4B00221A70594B0022A1
:1043D8001A7001DF09F028FB08F0FEFA06F084F9EC
:1043E80008F0BAFD08F09EFD08F04EFB08F084FCCA
:1043F80008F00CFD08F0ECFB4F4B1B6800221A601C
:1044080000210020FDF7C0FA0346FB7397F90F302F
:10441800002B02D097F90F3081E0FFF789FD72B6C3
:1044280000BF62B600BF444B1B685A68424B1B680A
:1044380003F5A07319461046FDF7B6FA0346FB7359
:1044480097F90F30002B0DD14FF0FF30FDF740FBEF
:10445800FDF752FC0346002B04D0374B1B680122A2
:1044680083F8492172B600BF97ED050A06F02EFAC7
:10447800FDF74EFC0346002B0CD1FDF73DFC03462F
:10448800002B07D12C4B1B6893F84931002B01D125
:10449800012300E00023DAB2264B1A7062B600BF8F
:1044A80062B600BF2FE0FDF7F7FB0346FB73FDF78D
:1044B8002FFC0346002B0AD1FDF71EFC0346002BF8
:1044C80005D11D4B1B6893F84931002B01D00123FE
:1044D80000E00023DAB2164B1A70154B1B78DBB2DA
:1044E800002B0CBF01230023DBB21A46114B1A70B4
:1044F8000F4B1B78DBB2002B05D0104B1B680F4A03
:1045080023F0010313600B4B1B78DBB2002BCAD1DD
:10451800FFF79EFEFDF7D0FB72B600BF00231846DA
:104528001837BD4680BD00BF0AD7233C00002A4388
:104538008D0700208E0700209C15010810E000E080
:104548000FB480B400AF00BFBD465DF8047B04B073
:10455800704780B485B000AFF860B9607A60FB68D6
:10456800BA681A60FB6804337A681A6000BF1437A7
:10457800BD465DF8047B7047F0B58BB000AF87EDA2
:10458800020B0346FB80FB88012B77D14FF000021A
:10459800414BD7E90201FBF7D7FF02460B46C7E9B3
:1045A80006239FED391B97ED060B0AF03FF853ECF5
:1045B800102B10461946FCF777FA03467B61002357
:1045C8007B6233A3D3E90023D7E90601FCF74CFA51
:1045D8000346002B0ED02EA3D3E90023D7E906010A
:1045E800FCF7DCF802460B4610461946FCF75CFA65
:1045F80003467B627A6A79692848FFF7AAFF284B45
:10460800D3E900014FF00002264BFCF705FA0346F8
:10461800002B2ED1224BD3E900014FF000024FF0BE
:104628004043FCF7F9F90346002B22D11C4BD3E990
:104638000001D7E90223FBF7CFFD02460B461446DB
:104648001D464FF00002184BD7E90201FBF77CFF2B
:1046580002460B4601210E4620462946FCF7E6F99C
:104668000346002B01D100231E46F3B21A460F4B16
:104678001A700F49D7E90223C1E9002300BF2C377C
:10468800BD46F0BDAFF30080000000000000F0411F
:104698000000E0FFFFFFEF4100408F40C00700200F
:1046A800080000200000F0BF0000B03CA807002070
:1046B800C807002080B584B000AF0023BB6000238A
:1046C8007B600023FB7323494FF000024FF0000387
:1046D800C1E9002320494FF000024FF00003C1E96F
:1046E80000233A1D07F108031146184605F0B6FFE6
:1046F800BB687A681146184604F0D2F80346FB7383
:1047080097F90F30002B05D01448FFF719FF97F9D8
:104718000F301AE03A1D07F108031146184605F054
:10472800B4FFBB687A681146184600F053FF034689
:10473800FB7397F90F30002B05D097F90F30194606
:104748000748FFF7FDFE97F90F3018461037BD46AA
:1047580080BD00BFB0070020B8070020D0EF0008D8
:10476800F8EF000880B584B000AF0346FB71002362
:10477800FB730023BB73002005F09EFF00237B73AF
:1047880004F05CFA0346FB7397F90F30002B0DD049
:1047980097F90F3013F1020F08D097F90F30194627
:1047A8003C48FFF7CDFE0123BB730BE07B7B002B5E
:1047B80004D197F90F3013F1020F01D0012300E063
:1047C80000237B73BB7B002B21D100F035FF034610
:1047D800FB7397F90F30002B0DD097F90F3013F1B9
:1047E800020F08D097F90F3019462B48FFF7A8FE9B
:1047F8000123BB730BE07B7B002B04D197F90F30AF
:1048080013F1020F01D0012300E000237B73BB7B6F
:10481800002B21D104F09CF90346FB7397F90F3064
:10482800002B0DD097F90F3013F1020F08D097F92C
:104838000F3019461948FFF783FE0123BB730BE0BD
:104848007B7B002B04D197F90F3013F1020F01D0B5
:10485800012300E000237B73FB79002B0DD000209F
:1048680005F02AFFBB7B002B02D17B7B002B01D1FB
:10487800012300E00023BB7301E00123BB73BB7B72
:10488800002B3FF47BAF97F90F3018461037BD4621
:1048980080BD00BF20F0000858F0000888F000082C
:1048A80080B582B000AF0023BB70394B1B78DBB2F8
:1048B800002B02D0002000F0DDFF00F0AFFF034620
:1048C800FB7000237B600EE00A2005F0F5FE7B6894
:1048D80003F51C5310337B600120FFF743FF00F002
:1048E8009DFF0346FB707B682A4A934202D8FB78F7
:1048F800002BE9D100F09EFF0346BB7097F9023008
:10490800002B05D097F9023019462348FFF718FE07
:1049180004F00EFB0346BB7097F90230002B05D05C
:1049280097F9023019461D48FFF70AFE1C4B002272
:104938001A701C4B00221A701B4B00221A601B4B6A
:1049480000221A601A4B00221A601A4B00221A60C1
:10495800194B00221A6019494FF000024FF04043EA
:10496800C1E900230A4B00221A70082200211448CA
:104978000AF076F913494FF000024FF00003C1E93D
:10498800002397F9023018460837BD4680BD00BF9E
:10499800A8070020FF2C3101C0F00008DCF0000857
:1049A8008F07002090070020940700209807002018
:1049B8009C070020A0070020A40700200800002072
:1049C800C0070020C807002080B586B000AF614B43
:1049D8001B687B617B69002B00F0B8805E4B1B78FD
:1049E800DBB2002B04D15B4B1B68002B00F0AE80C0
:1049F8005A4B1B78DBB2022B40F0A880584B1B782F
:104A0800002B40F0A3807B69D3E90023C7E9022388
:104A1800544B1B78002B00F08A80534B1B78DBB279
:104A2800002B04D0504B1B78DBB2022B01D10123A1
:104A380000E00023FB714C4B1B78DBB2012B04D048
:104A4800494B1B78DBB2022B01D1012300E0002384
:104A5800BB71FB79002B33D0444BD3E90023D7E952
:104A68000201FBF7F7FF0346002B0AD0404BD3E9BE
:104A780000013E4BD3E90023FBF7D8FF0346002B88
:104A880014D13A4BD3E90023D7E90201FBF7ECFF35
:104A98000346002B14D0364BD3E90001334BD3E93E
:104AA8000023FBF7B9FF0346002B09D0314B1B68E5
:104AB800002B02D1304B01221A70294B01221A70A7
:104AC800BB79002B33D0294BD3E90023D7E9020166
:104AD800FBF7ACFF0346002B0AD0254BD3E90001B6
:104AE800224BD3E90023FBF7B5FF0346002B14D173
:104AF8001E4BD3E90023D7E90201FBF78DFF0346DC
:104B0800002B14D01A4BD3E90001184BD3E900232A
:104B1800FBF7AAFF0346002B09D0164B1B68002B96
:104B280002D1154B01221A700D4B01221A700C4B41
:104B38001B78002B0CBF01230023DBB21A46094B5C
:104B48001A700B49D7E90223C1E9002300BF1837BF
:104B5800BD4680BDD4070020D8070020F4070020F8
:104B68000308002000080020F0070020E0070020CC
:104B7800F8070020EC0700200208002080B582B06A
:104B880000AF0023FB719E4B1B78DBB2002B18D1C2
:104B98009C4B00221A709C4B00221A709B4B1B786E
:104BA800DBB2002B2DD0964B02221A70974B0022B5
:104BB8001A70974B1B78DBB2002B22D10123FB71B3
:104BC8001FE0924B00221A708E4B1B78DBB2002B31
:104BD80009D0904B00221A70894B00221A70894B19
:104BE80000221A700DE08A4B1B78DBB2002B02D131
:104BF8000123FB7105E0844B1B78FB71824B00227B
:104C08001A707F4B1B78DBB2042B00F2D78001A20D
:104C180052F823F0314C00086B4D00084B4C00084B
:104C28001F4D0008A94C0008784B1B78DBB2002BFD
:104C380000F0D880724B02221A70744B00221A704E
:104C4800D0E0FB79002B00F0CF80734B1B68002B62
:104C58000DDD6F4B1B78DBB2012B08D16E4B1B6847
:104C68001A466E4B1A60664B03221A70BCE06C4BF6
:104C78001B68002B0AD0674B01221A70684B1B680F
:104C8800664A13605E4B04221A70ADE06548FFF770
:104C980057FC604B00221A70594B00221A70A3E08F
:104CA8005E4B1B68002B04D05C4B1B68013B5B4AC6
:104CB80013605A4B1B68002B40F098805A4B1B78A6
:104CC800DBB2012B06D1534B00221A704C4B002249
:104CD8001A708BE0554B1B68002B0AD04D4B0022F5
:104CE8001A70524B1B684D4A1360454B01221A70CB
:104CF8007CE0FB79002B07D0494B1B68474A1360BF
:104D08003F4B04221A7071E0424B00221A703C4B50
:104D180002221A706AE0414B1B68002B04D03F4BFB
:104D28001B68013B3D4A13603C4B1B68002B5FD15D
:104D38003B4B1B68002B0AD0364B01221A70384BAC
:104D48001B68364A13602E4B04221A7050E035480F
:104D5800FFF7F6FB2F4B00221A70294B00221A701E
:104D680046E02E4B1B68002B04D02C4B1B68013BE4
:104D78002A4A1360294B1B68002B3BD1FB79002B77
:104D880018D0274B1B68002B0AD0224B01221A701F
:104D9800234B1B68214A1360194B04221A7029E01F
:104DA8002048FFF7CDFB1B4B00221A70144B002242
:104DB8001A701FE0124B02221A701BE0104B1B786E
:104DC800DBB219461A48FFF7BBFB124B00221A70D8
:104DD8000D4B00221A700B4B00221A70084B002250
:104DE8001A7008E000BF06E000BF04E000BF02E060
:104DF80000BF00E000BF00BF0837BD4680BD00BF50
:104E0800F4070020F1070020030800201400002008
:104E1800F207002002080020EC0700200408002008
:104E28001000002000F10008F3070020E807002028
:104E380028F1000880B400AF10494FF000024FF08D
:104E48000003C1E900230E4B00221A700D4B1B789A
:104E5800DAB20D4B1A700D4B00221A700C4B00225F
:104E68001A700C4B00221A600B4B00221A70002398
:104E78001846BD465DF8047B704700BFF807002060
:104E880000080020F2070020010800200208002086
:104E98000308002004080020F407002080B584B02F
:104EA80000AF0346FB80FB88012B3FD1314B1B78B9
:104EB800DAB2314B1B789A4214BF01230023DBB2CC
:104EC800FB732C4B1B78DAB22B4B1A70FB7B002B35
:104ED8000BD02A4B00221A70294B00221A70294B3A
:104EE80000221A60284B00221A70224B1B78DBB272
:104EF800012B1BD1244B1B78DBB2002B04D1234B95
:104F08001B78DBB2002B08D11F4B1B78DBB2012BBF
:104F18000CD11C4B1B68012B08D11A4B00221A60BC
:104F28001A4B00221A70184B02221A70114B1B7868
:104F3800DBB2012B07D1164B1B889BB2FA889A4229
:104F480001D1FFF741FDFB88012B05D1FFF716FEC4
:104F5800104B00221A7006E00E4B1B78002B02D073
:104F68000D4B1B7801E0054B1B7818461037BD46E2
:104F780080BD00BFF20700200108002002080020C1
:104F88000308002004080020F40700201400002073
:104F9800D0070020090800200808002080B400AFCE
:104FA80026494FF000024FF00003C1E90023244BCB
:104FB80000221A70234B00221A70234B00221A7009
:104FC800224B00221A80224B00221A70214B002209
:104FD8001A70214B00221A60204B00221A70204BB5
:104FE80000221A701F4B00221A601F4B00221A70F1
:104FF8001E494FF000024FF00003C1E900231C4B8B
:105008004FF47A721A601B4B00221A601A4B002266
:105018001A601A4B00221A70194B01221A70194B88
:1050280000221A70184B00221A70184B00221A70AE
:1050380000231846BD465DF8047B7047F80700203A
:1050480000080020F407002001080020D0070020F5
:105058000208002003080020040800200808002097
:1050680009080020D4070020D8070020E007002006
:1050780010000020E8070020EC070020F0070020BF
:1050880014000020F1070020F2070020F307002099
:1050980080B400AF174B1B78DBB2002B25D1164B21
:1050A8001B78DBB2002B0BD0144B1B78DBB2002B28
:1050B80006D1134B01221A70124B01221A7014E008
:1050C8000E4B1B78DBB2002B0BD00B4B1B78DBB2E3
:1050D800002B06D10A4B00221A700A4B01221A70C3
:1050E80003E0084B00221A70FFE700BFBD465DF8D9
:1050F800047B7047F207002014000020F10700200D
:10510800080800200908002080B586B000AFF860C4
:10511800B9607A603B600023FB7503F0FDFE3861DF
:10512800FB681B68184604F00DF90021386803F085
:105138006BFE0246BB681A6003F056FE02467B68A7
:105148001A60BB681B68002B0FD0BB681B68194628
:10515800386904F0FDFB0246FB681A60FB681B68AF
:10516800002B04D1F623FB7501E0F823FB7597F9B2
:10517800173018461837BD4680BD000080B584B08A
:1051880000AFF860B9607A60FA68BB6813441B78AE
:1051980019460848FFF7D4F9FB68002B02D0F868D5
:1051A80004F0D0F87B6800221A60002318461037F4
:1051B800BD4680BD4CF1000880B584B000AFF860F2
:1051C800B9607A60FA68BB6813441B7819460648C8
:1051D800FFF7B6F97B6802221A604FF0FF331846D2
:1051E8001037BD4680BD00BFA8F1000880B485B067
:1051F80000AF03460A46FB711346BB710523FB73D8
:10520800FB79F02B02D90023FB7322E0FB79E32B17
:1052180005D9FB79F02B02D80123FB7319E0FB7940
:10522800D22B02D9FB79E22B08D9FB79C02B08D104
:10523800BB79002B05D0BB79022B02D80223FB7364
:1052480007E0FB79C72B04D9FB79D22B01D80323BC
:10525800FB73FB7B18461437BD465DF8047B70472B
:1052680080B58CB000AFF860B9607A603B60FB68CD
:10527800BB62BB6A1B7887F82730002387F82F307A
:1052880097F82730C02B06D1BB68012B03D9BB6A1E
:105298005B7887F82F30364B1B78002B3ED097F879
:1052A8002F2097F8273011461846FFF79FFF03462F
:1052B800FB76002387F82E30FB7E052B23D0FB7E60
:1052C8002C4A52F823307B6100233B617B69002B19
:1052D80019D097F827207B691046984738613B69B1
:1052E800002B14BF01230023DBB287F82E3097F878
:1052F8002E30002B07D03B695A687B681A603B69DF
:105308009A683B681A6097F82E30002B2CD17B687E
:10531800194A1A603B68194A1A6025E097F827303D
:10532800FF2B1BD1134B1B683B627B6800221A6062
:105338003B6800221A603B6A002B15D03B6AFF20AD
:105348009847F861FB69002B0ED0FB695A687B68A7
:105358001A60FB699A683B681A6005E07B68084A2E
:105368001A603B6800221A6000BF3037BD4680BD16
:105378000B08002010080020C151000851540008F3
:105388008551000880B483B000AF0346FB71044A1E
:10539800FB79137000BF0C37BD465DF8047B70477E
:1053A8000B08002080B400AF034B1B781846BD469D
:1053B8005DF8047B704700BF0C08002080B483B000
:1053C80000AF0346FB71064B1A78FB791343DAB238
:1053D800034B1A7000BF0C37BD465DF8047B70475D
:1053E8000C08002080B483B000AF0346FB7197F926
:1053F8000730DB435AB2074B1B785BB213405BB2F2
:10540800DAB2044B1A7000BF0C37BD465DF8047B56
:10541800704700BF0C08002080B400AF034B1B7816
:105428001846BD465DF8047B704700BF0D08002094
:1054380080B400AF034B1B881846BD465DF8047B5B
:10544800704700BF0E08002080B586B000AF034645
:10545800B9607A60FB7397F90F30002B05D1BB68F0
:105468003B613B69FF221A7076E0BB687B617B6910
:10547800FE221A7097F90F3010330F2B62D801A251
:1054880052F823F0455500083D55000835550008E9
:105498002D550008255500081D5500080D55000814
:1054A8001555000805550008FD540008F554000876
:1054B800ED540008D5540008CD540008DD54000808
:1054C800E55400087B6930225A7045E07B6929223F
:1054D8005A7041E07B6922225A703DE07B692022A4
:1054E8005A7039E07B6900225A7035E07B692322C3
:1054F8005A7031E07B6921225A702DE07B691122B4
:105508005A7029E07B6927225A7025E07B692A2294
:105518005A7021E07B6910225A701DE07B692422B1
:105528005A7019E07B6928225A7015E07B69262297
:105538005A7011E07B6931225A700DE07B69332281
:105548005A7009E097F90F3019460548FEF7F8FF39
:105558007B6920225A70FFE700BF1837BD4680BD1F
:10556800D8F1000880B487B000AF0346B9607A600C
:10557800FB7300237B61BB68002B23D000233B61B6
:1055880000233B6117E03A6913465B0013449B0014
:105598001A46BB6813441B78FA7B9A4208D13A69C9
:1055A80013465B0013449B001A46BB6813447B6197
:1055B8003B6901333B613A697B689A4202D27B6955
:1055C800002BE0D07B6918461C37BD465DF8047B8C
:1055D8007047000080B582B000AF78603960134B27
:1055E8001B78002B05D01248FEF7AAFF6FF00B03BB
:1055F80018E000F07BFC00F085FC03460D4A1360C0
:1056080002F052FA02F06CFA03460A4A936003F079
:1056180045F803F04DF80346064A5360034B012250
:105628001A70002318460837BD4680BD0A080020B6
:105638001CF200081008002080B58CB002AF0023CF
:1056480087F82730002387F826300023FB610023E2
:10565800BB6100237B6100233B610023FB600023C7
:105668003B620023BB6000237B60554B1B78002BFB
:1056780005D15448FEF764FF6FF008039BE007F17B
:10568800140007F1180207F11C0107F11003009339
:105698000346002003F012FB034687F8273097F9EA
:1056A8002730002B09D097F9273013F1040F04D0C5
:1056B80097F9273013F1050F71D1FB69002B05D03D
:1056C8007A693B691A44BB699A4203D9F82387F877
:1056D800273067E0FA697B6913443B6239693B1DEF
:1056E80007F10802386AFFF7BBFDBB68002B09D138
:1056F8003B6A1B7819463448FEF722FFF42387F8E3
:1057080027304FE0BB68F869796907F10C029847C0
:10571800034687F826307B68002B3DD0FB68002BBA
:105728003AD0002387F827303A69FB689A420BD2AF
:10573800FB6807F1140207F1180107F11C00FFF7D5
:10574800E3FC034687F827303B691A460021386A8C
:1057580009F086FA97F92730002B1DD1FA697B6981
:1057680013443B627B68FA6897F92600396A9847C0
:10577800F969B8697B69FA680192009303460A4699
:105788004FF6FF71012003F041F9034687F82730EF
:1057980097F92730002B04D197F927300BE000BF89
:1057A80000E000BFFB69002B03D0FB69184603F03B
:1057B800C9FD97F9273018462837BD4680BD00BF78
:1057C8000A0800204CF2000874F2000880B584B082
:1057D80000AF0346FB800023FB730023BB600D4B27
:1057E8001B78002B05D10C48FEF7AAFE6FF00803C2
:1057F8000CE004F0C9FFB860FB880022B9681846BD
:1058080002F06CFB0346FB7397F90F30184610370C
:10581800BD4680BD0A080020A4F2000880B400AF8D
:10582800034B1B781846BD465DF8047B704700BFE4
:105838000B08002080B500AF0B4B1B78002B02D162
:105848000A48FEF77DFE02F04FFF02F0F1FD00F07E
:1058580075FB10220021064809F002FA024B0022CB
:105868001A700023184680BD0A0800209CF300081F
:105878001008002080B584B000AF7860786802F026
:10588800B1FB0346FB7397F90F3018461037BD4636
:1058980080BD80B584B000AF0346FB800123FB7355
:1058A800FA7BFB880021184602F018FB0346BB73FD
:1058B80097F90E3018461037BD4680BD80B584B0C4
:1058C80000AF0346FB710123FB6003F0DCFAB8600C
:1058D800FA79B968FB68B1FBF3F39A4234BF012344
:1058E8000023DBB218461037BD4680BD80B584B0B2
:1058F80000AF78600B46FB7000F02AFBF860F9688F
:105908000648FEF71DFE064B1B781A46F9687868AC
:1059180009F0D8F900BF1037BD4680BDC4F30008B0
:105928002808002080B588B000AFF860B9607A60B8
:105938000023FB77FA68BB681344BB61BB697B61D2
:105948000023FB7402F0A6FC0346FB74FB7C002BCF
:1059580008D11A48FEF7F4FD7B6802221A606FF03E
:105968000A0327E07B695B78002B03D07B695B78AF
:10597800012B01D1012300E00023FB74FB7C002BE9
:105988000BD17B695B7819460D48FEF7D9FD7B681A
:1059980002221A606FF001030CE00A48FEF7D0FDFE
:1059A8000120FFF7EFFC0023FB777B6808221A60D1
:1059B80097F91F3018462037BD4680BDDCF3000834
:1059C80028F400084CF4000880B586B000AF034600
:1059D800B9607A60FB7397F90F30002B47D1BB6829
:1059E8007B6108220021786909F03AF97B69FF2276
:1059F8001A7005227B695A7000227B699A7003F03D
:105A080042FA0346DAB27B69DA7003F035FA0346E4
:105A18009AB27B699A807B6901229A717B6901221B
:105A2800DA717B695B7819461648FEF789FD7B6950
:105A38009B7819461448FEF783FD7B69DB78194685
:105A48001248FEF77DFD7B699B889BB2194610487A
:105A5800FEF776FD7B699B7919460E48FEF770FDC7
:105A68007B69DB7919460C48FEF76AFD06E097F971
:105A78000F307A68B9681846FFF7E6FC00BF183798
:105A8800BD4680BD74F4000890F40008ACF400082A
:105A9800C8F40008E4F4000800F5000880B586B0F2
:105AA80000AFF860B9607A600123FB7502F0F2FB81
:105AB8000346FB75FB7D002B08D10B48FEF740FD24
:105AC8007B6802221A606FF00A0309E00748FEF7B4
